{
  "contractName": "funding",
  "abi": [
    {
      "inputs": [],
      "name": "showSum",
      "outputs": [
        {
          "internalType": "uint256",
          "name": "",
          "type": "uint256"
        }
      ],
      "stateMutability": "pure",
      "type": "function"
    }
  ],
  "bytecode": "0x608060405234801561000f575f80fd5b5060af8061001c5f395ff3fe6080604052348015600e575f80fd5b50600436106026575f3560e01c8063fc0ac61c14602a575b5f80fd5b60306044565b604051603b91906062565b60405180910390f35b5f6003905090565b5f819050919050565b605c81604c565b82525050565b5f60208201905060735f8301846055565b9291505056fea2646970667358221220de2095a4e46e1ee1f4a353b0cae25600f79498253590aaf6a37258ff7910b0db64736f6c63430008140033",
  "immutableReferences": {},
  "source": "// SPDX-License-Identifier: UNLICENSED\npragma solidity ^0.8.8;\n\ncontract funding{\n    function showSum()public pure returns(uint256){\n        return 1+2;\n    }\n}",
  "sourcePath": "/Users/jaibhole/Documents/FundingProject/contracts/funding.sol",
  "compiler": {
    "name": "solc",
    "version": "0.8.20+commit.a1b79de6.Emscripten.clang"
  },
  "schemaVersion": "3.4.14",
  "updatedAt": "2023-05-31T18:03:57.233Z",
  "devdoc": {
    "kind": "dev",
    "methods": {},
    "version": 1
  },
  "userdoc": {
    "kind": "user",
    "methods": {},
    "version": 1
  }
}